{
  "address": "0x5FbDB2315678afecb367f032d93F642f64180aa3",
  "abi": [
    {
      "inputs": [],
      "stateMutability": "nonpayable",
      "type": "constructor"
    },
    {
      "inputs": [],
      "name": "ApprovalCallerNotOwnerNorApproved",
      "type": "error"
    },
    {
      "inputs": [],
      "name": "ApprovalQueryForNonexistentToken",
      "type": "error"
    },
    {
      "inputs": [],
      "name": "BalanceQueryForZeroAddress",
      "type": "error"
    },
    {
      "inputs": [],
      "name": "MintERC2309QuantityExceedsLimit",
      "type": "error"
    },
    {
      "inputs": [],
      "name": "MintToZeroAddress",
      "type": "error"
    },
    {
      "inputs": [],
      "name": "MintZeroQuantity",
      "type": "error"
    },
    {
      "inputs": [],
      "name": "OwnerQueryForNonexistentToken",
      "type": "error"
    },
    {
      "inputs": [],
      "name": "OwnershipNotInitializedForExtraData",
      "type": "error"
    },
    {
      "inputs": [],
      "name": "TransferCallerNotOwnerNorApproved",
      "type": "error"
    },
    {
      "inputs": [],
      "name": "TransferFromIncorrectOwner",
      "type": "error"
    },
    {
      "inputs": [],
      "name": "TransferToNonERC721ReceiverImplementer",
      "type": "error"
    },
    {
      "inputs": [],
      "name": "TransferToZeroAddress",
      "type": "error"
    },
    {
      "inputs": [],
      "name": "URIQueryForNonexistentToken",
      "type": "error"
    },
    {
      "anonymous": false,
      "inputs": [
        {
          "indexed": true,
          "internalType": "address",
          "name": "owner",
          "type": "address"
        },
        {
          "indexed": true,
          "internalType": "address",
          "name": "approved",
          "type": "address"
        },
        {
          "indexed": true,
          "internalType": "uint256",
          "name": "tokenId",
          "type": "uint256"
        }
      ],
      "name": "Approval",
      "type": "event"
    },
    {
      "anonymous": false,
      "inputs": [
        {
          "indexed": true,
          "internalType": "address",
          "name": "owner",
          "type": "address"
        },
        {
          "indexed": true,
          "internalType": "address",
          "name": "operator",
          "type": "address"
        },
        {
          "indexed": false,
          "internalType": "bool",
          "name": "approved",
          "type": "bool"
        }
      ],
      "name": "ApprovalForAll",
      "type": "event"
    },
    {
      "anonymous": false,
      "inputs": [
        {
          "indexed": true,
          "internalType": "uint256",
          "name": "fromTokenId",
          "type": "uint256"
        },
        {
          "indexed": false,
          "internalType": "uint256",
          "name": "toTokenId",
          "type": "uint256"
        },
        {
          "indexed": true,
          "internalType": "address",
          "name": "from",
          "type": "address"
        },
        {
          "indexed": true,
          "internalType": "address",
          "name": "to",
          "type": "address"
        }
      ],
      "name": "ConsecutiveTransfer",
      "type": "event"
    },
    {
      "anonymous": false,
      "inputs": [
        {
          "indexed": true,
          "internalType": "address",
          "name": "from",
          "type": "address"
        },
        {
          "indexed": true,
          "internalType": "address",
          "name": "to",
          "type": "address"
        },
        {
          "indexed": true,
          "internalType": "uint256",
          "name": "tokenId",
          "type": "uint256"
        }
      ],
      "name": "Transfer",
      "type": "event"
    },
    {
      "inputs": [
        {
          "internalType": "address",
          "name": "to",
          "type": "address"
        },
        {
          "internalType": "uint256",
          "name": "tokenId",
          "type": "uint256"
        }
      ],
      "name": "approve",
      "outputs": [],
      "stateMutability": "payable",
      "type": "function"
    },
    {
      "inputs": [
        {
          "internalType": "address",
          "name": "owner",
          "type": "address"
        }
      ],
      "name": "balanceOf",
      "outputs": [
        {
          "internalType": "uint256",
          "name": "",
          "type": "uint256"
        }
      ],
      "stateMutability": "view",
      "type": "function"
    },
    {
      "inputs": [
        {
          "internalType": "uint256",
          "name": "tokenId",
          "type": "uint256"
        }
      ],
      "name": "getApproved",
      "outputs": [
        {
          "internalType": "address",
          "name": "",
          "type": "address"
        }
      ],
      "stateMutability": "view",
      "type": "function"
    },
    {
      "inputs": [
        {
          "internalType": "address",
          "name": "owner",
          "type": "address"
        },
        {
          "internalType": "address",
          "name": "operator",
          "type": "address"
        }
      ],
      "name": "isApprovedForAll",
      "outputs": [
        {
          "internalType": "bool",
          "name": "",
          "type": "bool"
        }
      ],
      "stateMutability": "view",
      "type": "function"
    },
    {
      "inputs": [],
      "name": "name",
      "outputs": [
        {
          "internalType": "string",
          "name": "",
          "type": "string"
        }
      ],
      "stateMutability": "view",
      "type": "function"
    },
    {
      "inputs": [
        {
          "internalType": "uint256",
          "name": "tokenId",
          "type": "uint256"
        }
      ],
      "name": "ownerOf",
      "outputs": [
        {
          "internalType": "address",
          "name": "",
          "type": "address"
        }
      ],
      "stateMutability": "view",
      "type": "function"
    },
    {
      "inputs": [
        {
          "internalType": "uint256",
          "name": "_amount",
          "type": "uint256"
        }
      ],
      "name": "safeMint",
      "outputs": [],
      "stateMutability": "payable",
      "type": "function"
    },
    {
      "inputs": [
        {
          "internalType": "address",
          "name": "from",
          "type": "address"
        },
        {
          "internalType": "address",
          "name": "to",
          "type": "address"
        },
        {
          "internalType": "uint256",
          "name": "tokenId",
          "type": "uint256"
        }
      ],
      "name": "safeTransferFrom",
      "outputs": [],
      "stateMutability": "payable",
      "type": "function"
    },
    {
      "inputs": [
        {
          "internalType": "address",
          "name": "from",
          "type": "address"
        },
        {
          "internalType": "address",
          "name": "to",
          "type": "address"
        },
        {
          "internalType": "uint256",
          "name": "tokenId",
          "type": "uint256"
        },
        {
          "internalType": "bytes",
          "name": "_data",
          "type": "bytes"
        }
      ],
      "name": "safeTransferFrom",
      "outputs": [],
      "stateMutability": "payable",
      "type": "function"
    },
    {
      "inputs": [
        {
          "internalType": "address",
          "name": "operator",
          "type": "address"
        },
        {
          "internalType": "bool",
          "name": "approved",
          "type": "bool"
        }
      ],
      "name": "setApprovalForAll",
      "outputs": [],
      "stateMutability": "nonpayable",
      "type": "function"
    },
    {
      "inputs": [
        {
          "internalType": "bytes4",
          "name": "interfaceId",
          "type": "bytes4"
        }
      ],
      "name": "supportsInterface",
      "outputs": [
        {
          "internalType": "bool",
          "name": "",
          "type": "bool"
        }
      ],
      "stateMutability": "view",
      "type": "function"
    },
    {
      "inputs": [],
      "name": "symbol",
      "outputs": [
        {
          "internalType": "string",
          "name": "",
          "type": "string"
        }
      ],
      "stateMutability": "view",
      "type": "function"
    },
    {
      "inputs": [
        {
          "internalType": "uint256",
          "name": "tokenId",
          "type": "uint256"
        }
      ],
      "name": "tokenURI",
      "outputs": [
        {
          "internalType": "string",
          "name": "",
          "type": "string"
        }
      ],
      "stateMutability": "view",
      "type": "function"
    },
    {
      "inputs": [],
      "name": "totalSupply",
      "outputs": [
        {
          "internalType": "uint256",
          "name": "",
          "type": "uint256"
        }
      ],
      "stateMutability": "view",
      "type": "function"
    },
    {
      "inputs": [
        {
          "internalType": "address",
          "name": "from",
          "type": "address"
        },
        {
          "internalType": "address",
          "name": "to",
          "type": "address"
        },
        {
          "internalType": "uint256",
          "name": "tokenId",
          "type": "uint256"
        }
      ],
      "name": "transferFrom",
      "outputs": [],
      "stateMutability": "payable",
      "type": "function"
    }
  ],
  "transactionHash": "0xf6897cd00fb1301a3cfbd76daf2aae82472a3c63d6b5ae7606c2a7cd761b6925",
  "args": [],
  "numDeployments": 1,
  "solcInputHash": "6e9ad35561c150af09b4227ffdfdc72e",
  "bytecode": "0x608060405234801562000010575f80fd5b506040518060400160405280600881526020017f506f43546f6b656e0000000000000000000000000000000000000000000000008152506040518060400160405280600481526020017f504f43540000000000000000000000000000000000000000000000000000000081525081600290816200008e919062000326565b508060039081620000a0919062000326565b50620000b1620000be60201b60201c565b5f8190555050506200040a565b5f90565b5f81519050919050565b7f4e487b71000000000000000000000000000000000000000000000000000000005f52604160045260245ffd5b7f4e487b71000000000000000000000000000000000000000000000000000000005f52602260045260245ffd5b5f60028204905060018216806200013e57607f821691505b602082108103620001545762000153620000f9565b5b50919050565b5f819050815f5260205f209050919050565b5f6020601f8301049050919050565b5f82821b905092915050565b5f60088302620001b87fffffffffffffffffffffffffffffffffffffffffffffffffffffffffffffffff826200017b565b620001c486836200017b565b95508019841693508086168417925050509392505050565b5f819050919050565b5f819050919050565b5f6200020e620002086200020284620001dc565b620001e5565b620001dc565b9050919050565b5f819050919050565b6200022983620001ee565b62000241620002388262000215565b84845462000187565b825550505050565b5f90565b6200025762000249565b620002648184846200021e565b505050565b5b818110156200028b576200027f5f826200024d565b6001810190506200026a565b5050565b601f821115620002da57620002a4816200015a565b620002af846200016c565b81016020851015620002bf578190505b620002d7620002ce856200016c565b83018262000269565b50505b505050565b5f82821c905092915050565b5f620002fc5f1984600802620002df565b1980831691505092915050565b5f620003168383620002eb565b9150826002028217905092915050565b6200033182620000c2565b67ffffffffffffffff8111156200034d576200034c620000cc565b5b62000359825462000126565b620003668282856200028f565b5f60209050601f8311600181146200039c575f841562000387578287015190505b62000393858262000309565b86555062000402565b601f198416620003ac866200015a565b5f5b82811015620003d557848901518255600182019150602085019450602081019050620003ae565b86831015620003f55784890151620003f1601f891682620002eb565b8355505b6001600288020188555050505b505050505050565b611b0080620004185f395ff3fe6080604052600436106100e7575f3560e01c806342842e0e11610089578063a22cb46511610058578063a22cb465146102c9578063b88d4fde146102f1578063c87b56dd1461030d578063e985e9c514610349576100e7565b806342842e0e1461020b5780636352211e1461022757806370a082311461026357806395d89b411461029f576100e7565b8063095ea7b3116100c5578063095ea7b31461018d57806318160ddd146101a957806323b872dd146101d357806331c864e8146101ef576100e7565b806301ffc9a7146100eb57806306fdde0314610127578063081812fc14610151575b5f80fd5b3480156100f6575f80fd5b50610111600480360381019061010c919061141a565b610385565b60405161011e919061145f565b60405180910390f35b348015610132575f80fd5b5061013b610416565b6040516101489190611502565b60405180910390f35b34801561015c575f80fd5b5061017760048036038101906101729190611555565b6104a6565b60405161018491906115bf565b60405180910390f35b6101a760048036038101906101a29190611602565b610520565b005b3480156101b4575f80fd5b506101bd61065f565b6040516101ca919061164f565b60405180910390f35b6101ed60048036038101906101e89190611668565b610674565b005b61020960048036038101906102049190611555565b610982565b005b61022560048036038101906102209190611668565b61098f565b005b348015610232575f80fd5b5061024d60048036038101906102489190611555565b6109ae565b60405161025a91906115bf565b60405180910390f35b34801561026e575f80fd5b50610289600480360381019061028491906116b8565b6109bf565b604051610296919061164f565b60405180910390f35b3480156102aa575f80fd5b506102b3610a74565b6040516102c09190611502565b60405180910390f35b3480156102d4575f80fd5b506102ef60048036038101906102ea919061170d565b610b04565b005b61030b60048036038101906103069190611877565b610c0a565b005b348015610318575f80fd5b50610333600480360381019061032e9190611555565b610c7c565b6040516103409190611502565b60405180910390f35b348015610354575f80fd5b5061036f600480360381019061036a91906118f7565b610d17565b60405161037c919061145f565b60405180910390f35b5f6301ffc9a760e01b827bffffffffffffffffffffffffffffffffffffffffffffffffffffffff191614806103df57506380ac58cd60e01b827bffffffffffffffffffffffffffffffffffffffffffffffffffffffff1916145b8061040f5750635b5e139f60e01b827bffffffffffffffffffffffffffffffffffffffffffffffffffffffff1916145b9050919050565b60606002805461042590611962565b80601f016020809104026020016040519081016040528092919081815260200182805461045190611962565b801561049c5780601f106104735761010080835404028352916020019161049c565b820191905f5260205f20905b81548152906001019060200180831161047f57829003601f168201915b5050505050905090565b5f6104b082610da5565b6104e6576040517fcf4700e400000000000000000000000000000000000000000000000000000000815260040160405180910390fd5b60065f8381526020019081526020015f205f015f9054906101000a900473ffffffffffffffffffffffffffffffffffffffff169050919050565b5f61052a826109ae565b90508073ffffffffffffffffffffffffffffffffffffffff1661054b610dff565b73ffffffffffffffffffffffffffffffffffffffff16146105ae5761057781610572610dff565b610d17565b6105ad576040517fcfb3b94200000000000000000000000000000000000000000000000000000000815260040160405180910390fd5b5b8260065f8481526020019081526020015f205f015f6101000a81548173ffffffffffffffffffffffffffffffffffffffff021916908373ffffffffffffffffffffffffffffffffffffffff160217905550818373ffffffffffffffffffffffffffffffffffffffff168273ffffffffffffffffffffffffffffffffffffffff167f8c5be1e5ebec7d5bd14f71427d1e84f3dd0314c0f7b2291e5b200ac8c7c3b92560405160405180910390a4505050565b5f610668610e06565b6001545f540303905090565b5f61067e82610e0a565b90508373ffffffffffffffffffffffffffffffffffffffff168173ffffffffffffffffffffffffffffffffffffffff16146106e5576040517fa114810000000000000000000000000000000000000000000000000000000000815260040160405180910390fd5b5f806106f084610ecd565b915091506107068187610701610dff565b610ef0565b6107525761071b86610716610dff565b610d17565b610751576040517f59c896be00000000000000000000000000000000000000000000000000000000815260040160405180910390fd5b5b5f73ffffffffffffffffffffffffffffffffffffffff168573ffffffffffffffffffffffffffffffffffffffff16036107b7576040517fea553b3400000000000000000000000000000000000000000000000000000000815260040160405180910390fd5b6107c48686866001610f33565b80156107ce575f82555b60055f8773ffffffffffffffffffffffffffffffffffffffff1673ffffffffffffffffffffffffffffffffffffffff1681526020019081526020015f205f8154600190039190508190555060055f8673ffffffffffffffffffffffffffffffffffffffff1673ffffffffffffffffffffffffffffffffffffffff1681526020019081526020015f205f81546001019190508190555061089685610872888887610f39565b7c020000000000000000000000000000000000000000000000000000000017610f60565b60045f8681526020019081526020015f20819055505f7c0200000000000000000000000000000000000000000000000000000000841603610912575f6001850190505f60045f8381526020019081526020015f205403610910575f54811461090f578360045f8381526020019081526020015f20819055505b5b505b838573ffffffffffffffffffffffffffffffffffffffff168773ffffffffffffffffffffffffffffffffffffffff167fddf252ad1be2c89b69c2b068fc378daa952ba7f163c4a11628f55a4df523b3ef60405160405180910390a461097a8686866001610f8a565b505050505050565b61098c3382610f90565b50565b6109a983838360405180602001604052805f815250610c0a565b505050565b5f6109b882610e0a565b9050919050565b5f8073ffffffffffffffffffffffffffffffffffffffff168273ffffffffffffffffffffffffffffffffffffffff1603610a25576040517f8f4eb60400000000000000000000000000000000000000000000000000000000815260040160405180910390fd5b67ffffffffffffffff60055f8473ffffffffffffffffffffffffffffffffffffffff1673ffffffffffffffffffffffffffffffffffffffff1681526020019081526020015f2054169050919050565b606060038054610a8390611962565b80601f0160208091040260200160405190810160405280929190818152602001828054610aaf90611962565b8015610afa5780601f10610ad157610100808354040283529160200191610afa565b820191905f5260205f20905b815481529060010190602001808311610add57829003601f168201915b5050505050905090565b8060075f610b10610dff565b73ffffffffffffffffffffffffffffffffffffffff1673ffffffffffffffffffffffffffffffffffffffff1681526020019081526020015f205f8473ffffffffffffffffffffffffffffffffffffffff1673ffffffffffffffffffffffffffffffffffffffff1681526020019081526020015f205f6101000a81548160ff0219169083151502179055508173ffffffffffffffffffffffffffffffffffffffff16610bb9610dff565b73ffffffffffffffffffffffffffffffffffffffff167f17307eab39ab6107e8899845ad3d59bd9653f200f220920489ca2b5937696c3183604051610bfe919061145f565b60405180910390a35050565b610c15848484610674565b5f8373ffffffffffffffffffffffffffffffffffffffff163b14610c7657610c3f84848484610fad565b610c75576040517fd1a57ed600000000000000000000000000000000000000000000000000000000815260040160405180910390fd5b5b50505050565b6060610c8782610da5565b610cbd576040517fa14c4b5000000000000000000000000000000000000000000000000000000000815260040160405180910390fd5b5f610cc66110f8565b90505f815103610ce45760405180602001604052805f815250610d0f565b80610cee8461110e565b604051602001610cff9291906119cc565b6040516020818303038152906040525b915050919050565b5f60075f8473ffffffffffffffffffffffffffffffffffffffff1673ffffffffffffffffffffffffffffffffffffffff1681526020019081526020015f205f8373ffffffffffffffffffffffffffffffffffffffff1673ffffffffffffffffffffffffffffffffffffffff1681526020019081526020015f205f9054906101000a900460ff16905092915050565b5f81610daf610e06565b11158015610dbd57505f5482105b8015610df857505f7c010000000000000000000000000000000000000000000000000000000060045f8581526020019081526020015f205416145b9050919050565b5f33905090565b5f90565b5f8082905080610e18610e06565b11610e96575f54811015610e95575f60045f8381526020019081526020015f205490505f7c0100000000000000000000000000000000000000000000000000000000821603610e93575b5f8103610e895760045f836001900393508381526020019081526020015f20549050610e62565b8092505050610ec8565b505b5b6040517fdf2d9b4200000000000000000000000000000000000000000000000000000000815260040160405180910390fd5b919050565b5f805f60065f8581526020019081526020015f2090508092508254915050915091565b5f73ffffffffffffffffffffffffffffffffffffffff8316925073ffffffffffffffffffffffffffffffffffffffff821691508382148383141790509392505050565b50505050565b5f8060e883901c905060e8610f4f86868461115d565b62ffffff16901b9150509392505050565b5f73ffffffffffffffffffffffffffffffffffffffff83169250814260a01b178317905092915050565b50505050565b610fa9828260405180602001604052805f815250611165565b5050565b5f8373ffffffffffffffffffffffffffffffffffffffff1663150b7a02610fd2610dff565b8786866040518563ffffffff1660e01b8152600401610ff49493929190611a41565b6020604051808303815f875af192505050801561102f57506040513d601f19601f8201168201806040525081019061102c9190611a9f565b60015b6110a5573d805f811461105d576040519150601f19603f3d011682016040523d82523d5f602084013e611062565b606091505b505f81510361109d576040517fd1a57ed600000000000000000000000000000000000000000000000000000000815260040160405180910390fd5b805181602001fd5b63150b7a0260e01b7bffffffffffffffffffffffffffffffffffffffffffffffffffffffff1916817bffffffffffffffffffffffffffffffffffffffffffffffffffffffff191614915050949350505050565b606060405180602001604052805f815250905090565b606060a060405101806040526020810391505f825281835b60011561114857600184039350600a81066030018453600a8104905080611126575b50828103602084039350808452505050919050565b5f9392505050565b61116f83836111fc565b5f8373ffffffffffffffffffffffffffffffffffffffff163b146111f7575f805490505f83820390505b6111ab5f868380600101945086610fad565b6111e1576040517fd1a57ed600000000000000000000000000000000000000000000000000000000815260040160405180910390fd5b81811061119957815f54146111f4575f80fd5b50505b505050565b5f805490505f820361123a576040517fb562e8dd00000000000000000000000000000000000000000000000000000000815260040160405180910390fd5b6112465f848385610f33565b600160406001901b17820260055f8573ffffffffffffffffffffffffffffffffffffffff1673ffffffffffffffffffffffffffffffffffffffff1681526020019081526020015f205f82825401925050819055506112b8836112a95f865f610f39565b6112b2856113a5565b17610f60565b60045f8381526020019081526020015f20819055505f80838301905073ffffffffffffffffffffffffffffffffffffffff8516915082825f7fddf252ad1be2c89b69c2b068fc378daa952ba7f163c4a11628f55a4df523b3ef5f80a4600183015b8181146113525780835f7fddf252ad1be2c89b69c2b068fc378daa952ba7f163c4a11628f55a4df523b3ef5f80a4600181019050611319565b505f820361138c576040517f2e07630000000000000000000000000000000000000000000000000000000000815260040160405180910390fd5b805f8190555050506113a05f848385610f8a565b505050565b5f6001821460e11b9050919050565b5f604051905090565b5f80fd5b5f80fd5b5f7fffffffff0000000000000000000000000000000000000000000000000000000082169050919050565b6113f9816113c5565b8114611403575f80fd5b50565b5f81359050611414816113f0565b92915050565b5f6020828403121561142f5761142e6113bd565b5b5f61143c84828501611406565b91505092915050565b5f8115159050919050565b61145981611445565b82525050565b5f6020820190506114725f830184611450565b92915050565b5f81519050919050565b5f82825260208201905092915050565b5f5b838110156114af578082015181840152602081019050611494565b5f8484015250505050565b5f601f19601f8301169050919050565b5f6114d482611478565b6114de8185611482565b93506114ee818560208601611492565b6114f7816114ba565b840191505092915050565b5f6020820190508181035f83015261151a81846114ca565b905092915050565b5f819050919050565b61153481611522565b811461153e575f80fd5b50565b5f8135905061154f8161152b565b92915050565b5f6020828403121561156a576115696113bd565b5b5f61157784828501611541565b91505092915050565b5f73ffffffffffffffffffffffffffffffffffffffff82169050919050565b5f6115a982611580565b9050919050565b6115b98161159f565b82525050565b5f6020820190506115d25f8301846115b0565b92915050565b6115e18161159f565b81146115eb575f80fd5b50565b5f813590506115fc816115d8565b92915050565b5f8060408385031215611618576116176113bd565b5b5f611625858286016115ee565b925050602061163685828601611541565b9150509250929050565b61164981611522565b82525050565b5f6020820190506116625f830184611640565b92915050565b5f805f6060848603121561167f5761167e6113bd565b5b5f61168c868287016115ee565b935050602061169d868287016115ee565b92505060406116ae86828701611541565b9150509250925092565b5f602082840312156116cd576116cc6113bd565b5b5f6116da848285016115ee565b91505092915050565b6116ec81611445565b81146116f6575f80fd5b50565b5f81359050611707816116e3565b92915050565b5f8060408385031215611723576117226113bd565b5b5f611730858286016115ee565b9250506020611741858286016116f9565b9150509250929050565b5f80fd5b5f80fd5b7f4e487b71000000000000000000000000000000000000000000000000000000005f52604160045260245ffd5b611789826114ba565b810181811067ffffffffffffffff821117156117a8576117a7611753565b5b80604052505050565b5f6117ba6113b4565b90506117c68282611780565b919050565b5f67ffffffffffffffff8211156117e5576117e4611753565b5b6117ee826114ba565b9050602081019050919050565b828183375f83830152505050565b5f61181b611816846117cb565b6117b1565b9050828152602081018484840111156118375761183661174f565b5b6118428482856117fb565b509392505050565b5f82601f83011261185e5761185d61174b565b5b813561186e848260208601611809565b91505092915050565b5f805f806080858703121561188f5761188e6113bd565b5b5f61189c878288016115ee565b94505060206118ad878288016115ee565b93505060406118be87828801611541565b925050606085013567ffffffffffffffff8111156118df576118de6113c1565b5b6118eb8782880161184a565b91505092959194509250565b5f806040838503121561190d5761190c6113bd565b5b5f61191a858286016115ee565b925050602061192b858286016115ee565b9150509250929050565b7f4e487b71000000000000000000000000000000000000000000000000000000005f52602260045260245ffd5b5f600282049050600182168061197957607f821691505b60208210810361198c5761198b611935565b5b50919050565b5f81905092915050565b5f6119a682611478565b6119b08185611992565b93506119c0818560208601611492565b80840191505092915050565b5f6119d7828561199c565b91506119e3828461199c565b91508190509392505050565b5f81519050919050565b5f82825260208201905092915050565b5f611a13826119ef565b611a1d81856119f9565b9350611a2d818560208601611492565b611a36816114ba565b840191505092915050565b5f608082019050611a545f8301876115b0565b611a6160208301866115b0565b611a6e6040830185611640565b8181036060830152611a808184611a09565b905095945050505050565b5f81519050611a99816113f0565b92915050565b5f60208284031215611ab457611ab36113bd565b5b5f611ac184828501611a8b565b9150509291505056fea2646970667358221220df1064b20c60cca616912bc37fbcf9d2e694748646e10144c354b31fcc71392c64736f6c63430008140033",
  "devdoc": {
    "events": {
      "Approval(address,address,uint256)": {
        "details": "Emitted when `owner` enables `approved` to manage the `tokenId` token."
      },
      "ApprovalForAll(address,address,bool)": {
        "details": "Emitted when `owner` enables or disables (`approved`) `operator` to manage all of its assets."
      },
      "ConsecutiveTransfer(uint256,uint256,address,address)": {
        "details": "Emitted when tokens in `fromTokenId` to `toTokenId` (inclusive) is transferred from `from` to `to`, as defined in the [ERC2309](https://eips.ethereum.org/EIPS/eip-2309) standard. See {_mintERC2309} for more details."
      },
      "Transfer(address,address,uint256)": {
        "details": "Emitted when `tokenId` token is transferred from `from` to `to`."
      }
    },
    "kind": "dev",
    "methods": {
      "approve(address,uint256)": {
        "details": "Gives permission to `to` to transfer `tokenId` token to another account. The approval is cleared when the token is transferred. Only a single account can be approved at a time, so approving the zero address clears previous approvals. Requirements: - The caller must own the token or be an approved operator. - `tokenId` must exist. Emits an {Approval} event."
      },
      "balanceOf(address)": {
        "details": "Returns the number of tokens in `owner`'s account."
      },
      "getApproved(uint256)": {
        "details": "Returns the account approved for `tokenId` token. Requirements: - `tokenId` must exist."
      },
      "isApprovedForAll(address,address)": {
        "details": "Returns if the `operator` is allowed to manage all of the assets of `owner`. See {setApprovalForAll}."
      },
      "name()": {
        "details": "Returns the token collection name."
      },
      "ownerOf(uint256)": {
        "details": "Returns the owner of the `tokenId` token. Requirements: - `tokenId` must exist."
      },
      "safeTransferFrom(address,address,uint256)": {
        "details": "Equivalent to `safeTransferFrom(from, to, tokenId, '')`."
      },
      "safeTransferFrom(address,address,uint256,bytes)": {
        "details": "Safely transfers `tokenId` token from `from` to `to`. Requirements: - `from` cannot be the zero address. - `to` cannot be the zero address. - `tokenId` token must exist and be owned by `from`. - If the caller is not `from`, it must be approved to move this token by either {approve} or {setApprovalForAll}. - If `to` refers to a smart contract, it must implement {IERC721Receiver-onERC721Received}, which is called upon a safe transfer. Emits a {Transfer} event."
      },
      "setApprovalForAll(address,bool)": {
        "details": "Approve or remove `operator` as an operator for the caller. Operators can call {transferFrom} or {safeTransferFrom} for any token owned by the caller. Requirements: - The `operator` cannot be the caller. Emits an {ApprovalForAll} event."
      },
      "supportsInterface(bytes4)": {
        "details": "Returns true if this contract implements the interface defined by `interfaceId`. See the corresponding [EIP section](https://eips.ethereum.org/EIPS/eip-165#how-interfaces-are-identified) to learn more about how these ids are created. This function call must use less than 30000 gas."
      },
      "symbol()": {
        "details": "Returns the token collection symbol."
      },
      "tokenURI(uint256)": {
        "details": "Returns the Uniform Resource Identifier (URI) for `tokenId` token."
      },
      "totalSupply()": {
        "details": "Returns the total number of tokens in existence. Burned tokens will reduce the count. To get the total number of tokens minted, please see {_totalMinted}."
      },
      "transferFrom(address,address,uint256)": {
        "details": "Transfers `tokenId` from `from` to `to`. Requirements: - `from` cannot be the zero address. - `to` cannot be the zero address. - `tokenId` token must be owned by `from`. - If the caller is not `from`, it must be approved to move this token by either {approve} or {setApprovalForAll}. Emits a {Transfer} event."
      }
    },
    "version": 1
  },
  "userdoc": {
    "errors": {
      "ApprovalCallerNotOwnerNorApproved()": [
        {
          "notice": "The caller must own the token or be an approved operator."
        }
      ],
      "ApprovalQueryForNonexistentToken()": [
        {
          "notice": "The token does not exist."
        }
      ],
      "BalanceQueryForZeroAddress()": [
        {
          "notice": "Cannot query the balance for the zero address."
        }
      ],
      "MintERC2309QuantityExceedsLimit()": [
        {
          "notice": "The `quantity` minted with ERC2309 exceeds the safety limit."
        }
      ],
      "MintToZeroAddress()": [
        {
          "notice": "Cannot mint to the zero address."
        }
      ],
      "MintZeroQuantity()": [
        {
          "notice": "The quantity of tokens minted must be more than zero."
        }
      ],
      "OwnerQueryForNonexistentToken()": [
        {
          "notice": "The token does not exist."
        }
      ],
      "OwnershipNotInitializedForExtraData()": [
        {
          "notice": "The `extraData` cannot be set on an unintialized ownership slot."
        }
      ],
      "TransferCallerNotOwnerNorApproved()": [
        {
          "notice": "The caller must own the token or be an approved operator."
        }
      ],
      "TransferFromIncorrectOwner()": [
        {
          "notice": "The token must be owned by `from`."
        }
      ],
      "TransferToNonERC721ReceiverImplementer()": [
        {
          "notice": "Cannot safely transfer to a contract that does not implement the ERC721Receiver interface."
        }
      ],
      "TransferToZeroAddress()": [
        {
          "notice": "Cannot transfer to the zero address."
        }
      ],
      "URIQueryForNonexistentToken()": [
        {
          "notice": "The token does not exist."
        }
      ]
    },
    "kind": "user",
    "methods": {},
    "version": 1
  },
  "storageLayout": {
    "storage": [
      {
        "astId": 202,
        "contract": "contracts/PoCToken.sol:PoCToken",
        "label": "_currentIndex",
        "offset": 0,
        "slot": "0",
        "type": "t_uint256"
      },
      {
        "astId": 204,
        "contract": "contracts/PoCToken.sol:PoCToken",
        "label": "_burnCounter",
        "offset": 0,
        "slot": "1",
        "type": "t_uint256"
      },
      {
        "astId": 206,
        "contract": "contracts/PoCToken.sol:PoCToken",
        "label": "_name",
        "offset": 0,
        "slot": "2",
        "type": "t_string_storage"
      },
      {
        "astId": 208,
        "contract": "contracts/PoCToken.sol:PoCToken",
        "label": "_symbol",
        "offset": 0,
        "slot": "3",
        "type": "t_string_storage"
      },
      {
        "astId": 212,
        "contract": "contracts/PoCToken.sol:PoCToken",
        "label": "_packedOwnerships",
        "offset": 0,
        "slot": "4",
        "type": "t_mapping(t_uint256,t_uint256)"
      },
      {
        "astId": 216,
        "contract": "contracts/PoCToken.sol:PoCToken",
        "label": "_packedAddressData",
        "offset": 0,
        "slot": "5",
        "type": "t_mapping(t_address,t_uint256)"
      },
      {
        "astId": 221,
        "contract": "contracts/PoCToken.sol:PoCToken",
        "label": "_tokenApprovals",
        "offset": 0,
        "slot": "6",
        "type": "t_mapping(t_uint256,t_struct(TokenApprovalRef)134_storage)"
      },
      {
        "astId": 227,
        "contract": "contracts/PoCToken.sol:PoCToken",
        "label": "_operatorApprovals",
        "offset": 0,
        "slot": "7",
        "type": "t_mapping(t_address,t_mapping(t_address,t_bool))"
      }
    ],
    "types": {
      "t_address": {
        "encoding": "inplace",
        "label": "address",
        "numberOfBytes": "20"
      },
      "t_bool": {
        "encoding": "inplace",
        "label": "bool",
        "numberOfBytes": "1"
      },
      "t_mapping(t_address,t_bool)": {
        "encoding": "mapping",
        "key": "t_address",
        "label": "mapping(address => bool)",
        "numberOfBytes": "32",
        "value": "t_bool"
      },
      "t_mapping(t_address,t_mapping(t_address,t_bool))": {
        "encoding": "mapping",
        "key": "t_address",
        "label": "mapping(address => mapping(address => bool))",
        "numberOfBytes": "32",
        "value": "t_mapping(t_address,t_bool)"
      },
      "t_mapping(t_address,t_uint256)": {
        "encoding": "mapping",
        "key": "t_address",
        "label": "mapping(address => uint256)",
        "numberOfBytes": "32",
        "value": "t_uint256"
      },
      "t_mapping(t_uint256,t_struct(TokenApprovalRef)134_storage)": {
        "encoding": "mapping",
        "key": "t_uint256",
        "label": "mapping(uint256 => struct ERC721A.TokenApprovalRef)",
        "numberOfBytes": "32",
        "value": "t_struct(TokenApprovalRef)134_storage"
      },
      "t_mapping(t_uint256,t_uint256)": {
        "encoding": "mapping",
        "key": "t_uint256",
        "label": "mapping(uint256 => uint256)",
        "numberOfBytes": "32",
        "value": "t_uint256"
      },
      "t_string_storage": {
        "encoding": "bytes",
        "label": "string",
        "numberOfBytes": "32"
      },
      "t_struct(TokenApprovalRef)134_storage": {
        "encoding": "inplace",
        "label": "struct ERC721A.TokenApprovalRef",
        "members": [
          {
            "astId": 133,
            "contract": "contracts/PoCToken.sol:PoCToken",
            "label": "value",
            "offset": 0,
            "slot": "0",
            "type": "t_address"
          }
        ],
        "numberOfBytes": "32"
      },
      "t_uint256": {
        "encoding": "inplace",
        "label": "uint256",
        "numberOfBytes": "32"
      }
    }
  }
}